S02100004175746F6D61746963206261747465727920636861726765722E7372656345
S11300000C94A7000C94C4000C94C4000C94C40079
S11300100C94C4000C94C4000C94C4000C94C4004C
S11300200C94C4000C94C4000C94C4000C94C4003C
S11300300C94C4000C94C4000C94C4000C94C4002C
S11300400C94C4000C94C4000C94C4000C94C4001C
S11300500C94C40000407A10F35A00A0724E1809A0
S11300600010A5D4E80000E87648170000E40B541B
S1130070020000CA9A3B000000E1F50500008096EA
S11300809800000040420F000000A086010000001C
S1130090102700000000E8030000000064000000D6
S11300A000000A00000000000100000000002C769F
S11300B0D888DC674F0823DFC1DFAE59E1B1B796BA
S11300C0E5E3E453C63AE651997696E8E6C2842617
S11300D0EB898C9B62ED407C6FFCEFBC9C9F40F2F3
S11300E0BAA56FA5F490055A2AF75C936B6CF9676F
S11300F06DC11BFCE0E40D47FEF520E6B500D0ED34
S1130100902E0300943577050080841E080000209B
S11301104E0A000000C80C333333330F986E128339
S11301201141EF8D2114893BE65516CFFEE6DB180D
S1130130D1844B381BF77C1D901DA4BBE4242032D2
S113014084725E228100C9F124ECA1E53D271124CB
S11301501FBECFE5D8E0DEBFCDBF10E0A0E6B0E023
S1130160E8E8F2E102C005900D92A237B107D9F791
S113017010E0A2E7B0E001C01D92AA38B107E1F790
S11301800E94D0030C9442090C940000939A81E0DD
S113019090E0909375008093740008959398109262
S11301A07500109274000895949A81E090E0909301
S11301B0730080937200089587E886B917B808958C
S11301C0369A349BFECF84B195B10895CF92DF92D5
S11301D0EF92FF921F93CF93DF9360916A00709127
S11301E06B0080916C0090916D0020E030E040E85D
S11301F05AE30E941106C62FC72ED82F192F0E942A
S1130200E000BC0180E090E00E945B059B01AC0132
S11302108C2F9C2DAD2FB12FBC01CD010E94110656
S11302206B017C0160916E0070916F008091700091
S11302309091710020916A0030916B0040916C00A4
S113024050916D000E94F3049B01AC01C701B601FB
S11302500E941106DC01CB0180937C0090937D0009
S1130260A0937E00B0937F00DF91CF911F91FF9008
S1130270EF90DF90CF90089588BBAF9AAE9A89EF44
S113028090E00197F1F700C00000AE98089588BB94
S1130290AF98AE9A89EF90E00197F1F700C00000A3
S11302A0AE980895FB01982F92959F70905D90836E
S11302B08F70805D8183128208950F931F93CF9373
S11302C0DF93E82FF92FDF010D900020E9F7119754
S11302D00A2F081B49F0C82FD92F10E089910E94DA
S11302E03C011F5F1017D0F3DF91CF911F910F9145
S11302F00895CF93DF93CDB7DEB727970FB6F89461
S1130300DEBF0FBECDBFBE016F5F7F4F4AE050E03E
S11303100E949606CE0101960E945D0127960FB6B3
S1130320F894DEBF0FBECDBFDF91CF9108950F9338
S11303301F93CF93DF93CDB7DEB727970FB6F8940B
S1130340DEBF0FBECDBF8E010F5F1F4F0E9474062C
S1130350C8010E945D0127960FB6F894DEBF0FBE58
S1130360CDBFDF91CF911F910F910895CF93DF936C
S1130370CDB7DEB72A970FB6F894DEBF0FBECDBF58
S1130380BE016F5F7F4F0E945201CE0101960E9411
S11303905D012A960FB6F894DEBF0FBECDBFDF9184
S11303A0CF910895FF920F931F93CF93DF93142F50
S11303B0F52E8330910549F08430910549F082305F
S11303C0910549F020E830E008C020E930E005C09C
S11303D020ED30E002C020EC30E0CB010197820F29
S11303E00E944701E12FFF2DDF010D900020E9F766
S11303F011970A2F011B49F0C12FDF2D10E08991BD
S11304000E943C011F5F1017D0F3DF91CF911F9121
S11304100F91FF900895CF93DF93EA018330910504
S113042049F08430910549F08230910549F020E883
S113043030E008C020E930E005C020ED30E002C023
S113044020EC30E0CB010197820F0E944701CE01DE
S11304500E947901DF91CF9108958F929F92AF927C
S1130460BF92EF92FF920F931F9349015A01833079
S1130470910549F08430910549F08230910549F0A5
S113048020E830E008C020E930E005C020ED30E08D
S113049002C020EC30E0CB010197820F0E9447019B
S11304A0C501B401A80197010E9497011F910F9102
S11304B0FF90EF90BF90AF909F908F900895CF934F
S11304C0DF93EA018330910549F08430910549F0C6
S11304D08230910549F020E830E008C020E930E09E
S11304E005C020ED30E002C020EC30E0CB010197E4
S11304F0820F0E944701CE010E94B601DF91CF9185
S113050008958330910549F08430910549F0823093
S1130510910549F020E830E008C020E930E005C04A
S113052020ED30E002C020EC30E0CB010197820FD7
S11305300E9447018FE00E944701089588E30E94CA
S1130540470180E80E9447018CE00E94470108951A
S113055081E00E944701089580E690E08093800046
S11305608093770080938500809376008093880041
S11305708093820080938700809379008093810028
S11305808093780080937A0080938400809389001C
S1130590809383008093860080937B0008958091EC
S11305A080000E943C0183EC99E00197F1F700C0C0
S11305B00000809177000E943C0183EC99E0019750
S11305C0F1F700C00000809185000E943C0183EC9B
S11305D099E00197F1F700C00000809176000E9435
S11305E03C0183EC99E00197F1F700C00000809191
S11305F088000E943C0183EC99E00197F1F700C068
S11306000000809182000E943C0183EC99E00197F4
S1130610F1F700C00000809187000E943C0183EC48
S113062099E00197F1F700C00000809179000E94E1
S11306303C0183EC99E00197F1F700C00000809140
S113064081000E943C0183EC99E00197F1F700C01E
S11306500000809178000E943C0183EC99E00197AE
S1130660F1F700C0000080917A000E943C0183EC05
S113067099E00197F1F700C00000809184000E9486
S11306803C0183EC99E00197F1F700C000008091F0
S113069089000E943C0183EC99E00197F1F700C0C6
S11306A00000809183000E943C0183EC99E0019753
S11306B0F1F700C00000809186000E943C0183ECA9
S11306C099E00197F1F700C0000080917B000E943F
S11306D03C0183EC99E00197F1F700C00000089514
S11306E0909177009093800090918500909377008B
S11306F09091760090938500909188009093760075
S1130700909182009093880090918700909382004A
S11307109091790090938700909181009093790053
S1130720909178009093810090917A009093780052
S11307309091840090937A00909189009093840022
S11307409091830090938900909186009093830008
S113075090917B009093860080937B000E94CF024F
S113076008950F931F93CF93DF93E82FF92FDF01A1
S11307700D900020E9F711970A2F081B61F0C82F8C
S1130780D92F10E080E80E94470189910E947003EC
S11307901F5F1017B8F3DF91CF911F910F91089548
S11307A08FEF81BB17BAA79AA69A0E94DC00CEEC01
S11307B0D0E0919892988FE39DE0A3E0815090401F
S11307C0A040E1F700C000000E94E600C0907C0059
S11307D0D0907D00E0907E00F0907F00C701B601CC
S11307E026EF38E240E151E40E940D0618160CF0A1
S11307F048C08090660090906700A0906800B09018
S11308006900C701B601A50194010E94EF04882381
S113081041F0C701B601A50194010E940D06181606
S11308206CF5FE0109958FE392E4AFE081509040AE
S1130830A040E1F700C0000060916600709167007D
S1130840809168009091690020E030E040E85FE327
S11308500E948A0420917C0030917D0040917E00AA
S113086050917F000E940D06181624F40E94C600C1
S1130870909A0BC0FE010995909A07C00E94C60089
S113088004C00E94C6000E94D4008091740090911C
S113089075000097F9F060917C0070917D00809163
S11308A07E0090917F00209162003091630040911E
S11308B06400509165000E940D0618165CF490982F
S11308C0919A8FE39DE0A3E081509040A040E1F72E
S11308D000C0000060917C0070917D0080917E00DA
S11308E090917F00209162003091630040916400F8
S11308F0509165000E94EF0418160CF45ACF929A96
S11309008FE39DE0A3E081509040A040E1F700C058
S113091000004FCF5058BB27AA270ED044C135D171
S113092030F03AD120F031F49F3F11F41EF42AC183
S11309300EF4E095E7FB20C1E92F46D180F3BA1706
S1130940620773078407950718F071F49EF55EC17A
S11309500EF4E0950B2EBA2FA02D0B01B9019001D6
S11309600C01CA01A0011124FF27591B99F0593F1A
S113097050F4503E68F11A16F040A22F232F342F62
S11309804427585FF3CF469537952795A795F040B0
S11309905395C9F77EF41F16BA0B620B730B840BC5
S11309A0BAF09150A1F0FF0FBB1F661F771F881F7D
S11309B0C2F70EC0BA0F621F731F841F48F48795D5
S11309C077956795B795F7959E3F08F0B3CF9395C4
S11309D0880F08F09927EE0F979587950895A8D06A
S11309E008F481E008950CD0DEC0D6D040F0CDD01C
S11309F030F021F45F3F19F0BFC0511108C1C2C0EB
S1130A00E3D098F39923C9F35523B1F3951B550B00
S1130A10BB27AA2762177307840738F09F5F5F4FCD
S1130A20220F331F441FAA1FA9F333D00E2E3AF00E
S1130A30E0E830D091505040E695001CCAF729D028
S1130A40FE2F27D0660F771F881FBB1F2617370777
S1130A504807AB07B0E809F0BB0B802DBF01FF27A7
S1130A6093585F4F2AF09E3F510568F085C0CFC070
S1130A705F3FECF3983EDCF3869577956795B795E1
S1130A80F7959F5FC9F7880F911D9695879597F9FC
S1130A900895E1E0660F771F881FBB1F6217730775
S1130AA08407BA0720F0621B730B840BBA0BEE1F8A
S1130AB088F7E0950895E89409C097FB3EF4909573
S1130AC08095709561957F4F8F4F9F4F9923A9F023
S1130AD0F92F96E9BB279395F695879577956795B2
S1130AE0B795F111F8CFFAF4BB0F11F460FF1BC0F6
S1130AF06F5F7F4F8F4F9F4F16C0882311F096E989
S1130B0011C0772321F09EE8872F762F05C0662336
S1130B1071F096E8862F70E060E02AF09A95660FEF
S1130B20771F881FDAF7880F9695879597F90895A8
S1130B30990F0008550FAA0BE0E8FEEF16161706EA
S1130B40E807F907C0F012161306E407F50798F052
S1130B50621B730B840B950B39F40A2661F0232B6B
S1130B60242B252B21F408950A2609F4A140A695E7
S1130B708FEF811D811D089597F99F6780E870E0CC
S1130B8060E008959FEF80EC089500240A941616FF
S1130B90170618060906089500240A941216130667
S1130BA0140605060895092E0394000C11F48823F5
S1130BB052F0BB0F40F4BF2B11F460FF04C06F5F11
S1130BC07F4F8F4F9F4F089557FD9058440F551FE7
S1130BD059F05F3F71F04795880F97FB991F61F0BB
S1130BE09F3F79F087950895121613061406551F32
S1130BF0F2CF4695F1DF08C0161617061806991F9E
S1130C00F1CF86957105610508940895E894BB2792
S1130C1066277727CB0197F908958ADF08F48FEFC9
S1130C2008950BD0C0CFB1DF28F0B6DF18F09523BC
S1130C3009F0A2CFA7CF1124EACFC6DFA0F3959F76
S1130C40D1F3950F50E0551F629FF001729FBB27AF
S1130C50F00DB11D639FAA27F00DB11DAA1F649F5B
S1130C606627B00DA11D661F829F2227B00DA11D0E
S1130C70621F739FB00DA11D621F839FA00D611D94
S1130C80221F749F3327A00D611D231F849F600DB5
S1130C90211D822F762F6A2F11249F5750408AF0EE
S1130CA0E1F088234AF0EE0FFF1FBB1F661F771F7A
S1130CB0881F91505040A9F79E3F510570F05CCFBA
S1130CC0A6CF5F3FECF3983EDCF386957795679566
S1130CD0B795F795E7959F5FC1F7FE2B880F911D98
S1130CE09695879597F90895EF920F931F93CF9355
S1130CF0322FC02F47FF02C0A4E101C0A4E0E42FBB
S1130D00FF27E7FDF095F7FF03C0F095E195FF4F4E
S1130D104C2F512F2E2F032FEA2E0E94B7068C2F13
S1130D20912FCF911F910F91EF900895FB019F0197
S1130D30E8944230C4F04532B4F44A3029F497FBC5
S1130D401EF4909581959F4F642F77270E94F70892
S1130D50805D8A330CF0895D8193CB010097A1F704
S1130D6016F45DE251931082C9010C94E708A9E0DE
S1130D70B0E0EDEBF6E00C940F096A01122FF02EAF
S1130D802BE3201718F0B02EB39402C03CE3B32E2B
S1130D90AE014F5F5F4F27E00B2D0E940F08BC018F
S1130DA0A981B0E0CD01897090708130910531F056
S1130DB0E1FC06C0E0FE06C040E205C04DE203C00F
S1130DC04BE201C040E0A3FF36C0442311F084E0AD
S1130DD001C083E0811710F4181B01C010E0E4FC8B
S1130DE00BC0912FF60180E202C0819391509923A8
S1130DF0E1F7C10ED11C10E0442319F0F601419330
S1130E006F01E2FE05C08EE4F601808391E404C024
S1130E108EE6F601808391E69183828383E090E0FD
S1130E20C80ED91E812FF60190E202C09193815021
S1130E308823E1F73AC0A2FF3FC0442311F084E0C5
S1130E4001C083E0811710F4181B01C010E0E4FC1A
S1130E500BC0912FF60180E202C081939150992337
S1130E60E1F7C10ED11C10E0442319F0F6014193BF
S1130E706F01E2FE07C089E4F60180838EE481837A
S1130E8086E406C089E6F60180838EE6818386E6E1
S1130E90828383E090E0C80ED91E812FF60190E290
S1130EA002C0919381508823E1F7C10ED11CF60151
S1130EB010828EEF9FEFAFC021E030E0442311F4A5
S1130EC020E030E0161617061CF4CB01019602C090
S1130ED081E090E0280F391FFF2021F08F2D90E052
S1130EE0019602C080E090E0820F931F212F30E032
S1130EF0821793071CF4512F581B01C050E08E2D0C
S1130F0090E09C0120713070E4FC0DC0E3FC0BC048
S1130F10852FF60190E202C0919381508823E1F776
S1130F20C50ED11C50E0442319F0F60141936F0122
S1130F302115310559F4852FF60190E302C09193F0
S1130F4081508823E1F7C50ED11C50E0B60E4A81CA
S1130F5020E1622E712C6A227B22A4FF03C041335C
S1130F6009F4BA941B142CF48B2D893018F088E002
S1130F7001C081E09B0177FF02C020E030E0A0E0E7
S1130F80B0E09EE2E92E4B01881A9108CB01821B46
S1130F90930B8E010F5F1F4F080F191F8F2D90E0C9
S1130FA0AA24BB24A81AB90AFFEF2F3F3F0719F45C
S1130FB0F601E1926F016217730744F082169306FB
S1130FC02CF4F801EA0FFB1F818101C080E321505A
S1130FD0304011962A153B0524F0F60181936F01E8
S1130FE0E3CF2617370741F4463328F4453321F479
S1130FF06114710409F481E3F6018193852FDF0103
S113100090E202C09D9381508823E1F7E50FF11D22
S1131010108280E090E02996EEE00C942B092830B1
S113102008F027E03327DA01990F311D87FD91601D
S113103000966105710539F432602E5F3D9330E30B
S11310402A95E1F708959F3F30F0803871056105D6
S113105009F03C5F3C5F3D93913008F08068911D3E
S1131060DF93CF931F930F93FF92EF92192F987FE3
S11310709695E92F96959695E90FFF27E255FF4F30
S113108099273327EE24FF24A701E701059008944C
S1131090079428F4360FE71EF81E491F511D660FEA
S11310A0771F881F991F0694A1F70590079428F4C9
S11310B0E70EF81E491F561FC11D770F881F991F81
S11310C0661F0694A1F70590079428F4F80E491FAB
S11310D0561FC71FD11D880F991F661F771F0694BF
S11310E0A1F70590079420F4490F561FC71FD81F76
S11310F0990F661F771F881F0694A9F7849110958E
S1131100177041F0D695C79557954795F794E7948E
S11311101A95C1F7E4E5F0E06894159015913591BE
S11311206591959105907FE27395E118F10A430B5F
S1131130560BC90BD009C0F7E10CF11E431F561F13
S1131140C91FD01D7EF4703311F48A95E6CFE8945C
S1131150015030F0080F0AF40027021708F4202F7A
S11311602395022F7A3328F079E37D932A95E9F7C2
S113117010C07D932A9589F60694979567953795BF
S113118017951794E118F10A430B560BC90BD009B4
S113119098F023957E9173957A3308F070E37C93ED
S11311A02013B8F77E9170617D9330F0839571E3DD
S11311B07D9370E32A95E1F71124EF90FF900F914E
S11311C01F91CF91DF91992787FD90950895DC01B8
S11311D0FC01672F71917723E1F7329704C07C916A
S11311E06D9370836291AE17BF07C8F30895AA1B6D
S11311F0BB1B51E107C0AA1FBB1FA617B70710F0FE
S1131200A61BB70B881F991F5A95A9F7809590952F
S1131210BC01CD0108952F923F924F925F926F923D
S11312207F928F929F92AF92BF92CF92DF92EF9272
S1131230FF920F931F93CF93DF93CDB7DEB7CA1BF3
S1131240DB0B0FB6F894DEBF0FBECDBF09942A881E
S1131250398848885F846E847D848C849B84AA84C6
S1131260B984C884DF80EE80FD800C811B81AA8153
S1131270B981CE0FD11D0FB6F894DEBF0FBECDBF1E
S10B1280ED010895F894FFCF7D
S1131288200000002041000068410000A040C3F590
S105129894417B
S9030000FC
